{
  "contractName": "Escroll",
  "abi": [
    {
      "inputs": [],
      "stateMutability": "nonpayable",
      "type": "constructor"
    },
    {
      "anonymous": false,
      "inputs": [
        {
          "indexed": false,
          "internalType": "string",
          "name": "matricNumber",
          "type": "string"
        },
        {
          "indexed": false,
          "internalType": "string",
          "name": "scrollIPFS",
          "type": "string"
        },
        {
          "indexed": false,
          "internalType": "string",
          "name": "status",
          "type": "string"
        },
        {
          "indexed": false,
          "internalType": "uint256",
          "name": "deployTime",
          "type": "uint256"
        },
        {
          "indexed": false,
          "internalType": "uint256",
          "name": "blockNumber",
          "type": "uint256"
        }
      ],
      "name": "scrollInserted",
      "type": "event"
    },
    {
      "anonymous": false,
      "inputs": [
        {
          "indexed": false,
          "internalType": "string",
          "name": "matricNumber",
          "type": "string"
        },
        {
          "indexed": false,
          "internalType": "string",
          "name": "scrollIPFS",
          "type": "string"
        },
        {
          "indexed": false,
          "internalType": "string",
          "name": "status",
          "type": "string"
        },
        {
          "indexed": false,
          "internalType": "uint256",
          "name": "deployTime",
          "type": "uint256"
        },
        {
          "indexed": false,
          "internalType": "uint256",
          "name": "blockNumber",
          "type": "uint256"
        }
      ],
      "name": "scrollUpdated",
      "type": "event"
    },
    {
      "anonymous": false,
      "inputs": [
        {
          "indexed": false,
          "internalType": "address",
          "name": "uniAddress",
          "type": "address"
        },
        {
          "indexed": false,
          "internalType": "string",
          "name": "uniName",
          "type": "string"
        },
        {
          "indexed": false,
          "internalType": "string",
          "name": "name",
          "type": "string"
        },
        {
          "indexed": false,
          "internalType": "string",
          "name": "matricNumber",
          "type": "string"
        },
        {
          "indexed": false,
          "internalType": "string",
          "name": "nationality",
          "type": "string"
        },
        {
          "indexed": false,
          "internalType": "string",
          "name": "faculty",
          "type": "string"
        },
        {
          "indexed": false,
          "internalType": "string",
          "name": "course",
          "type": "string"
        },
        {
          "indexed": false,
          "internalType": "string",
          "name": "identityCardNo",
          "type": "string"
        },
        {
          "indexed": false,
          "internalType": "string",
          "name": "gender",
          "type": "string"
        },
        {
          "indexed": false,
          "internalType": "string",
          "name": "status",
          "type": "string"
        },
        {
          "indexed": false,
          "internalType": "uint256",
          "name": "deployTime",
          "type": "uint256"
        },
        {
          "indexed": false,
          "internalType": "uint256",
          "name": "blockNumber",
          "type": "uint256"
        }
      ],
      "name": "studentInserted",
      "type": "event"
    },
    {
      "anonymous": false,
      "inputs": [
        {
          "indexed": false,
          "internalType": "address",
          "name": "uniAddress",
          "type": "address"
        },
        {
          "indexed": false,
          "internalType": "string",
          "name": "uniName",
          "type": "string"
        },
        {
          "indexed": false,
          "internalType": "string",
          "name": "name",
          "type": "string"
        },
        {
          "indexed": false,
          "internalType": "string",
          "name": "matricNumber",
          "type": "string"
        },
        {
          "indexed": false,
          "internalType": "string",
          "name": "nationality",
          "type": "string"
        },
        {
          "indexed": false,
          "internalType": "string",
          "name": "faculty",
          "type": "string"
        },
        {
          "indexed": false,
          "internalType": "string",
          "name": "course",
          "type": "string"
        },
        {
          "indexed": false,
          "internalType": "string",
          "name": "identityCardNo",
          "type": "string"
        },
        {
          "indexed": false,
          "internalType": "string",
          "name": "gender",
          "type": "string"
        },
        {
          "indexed": false,
          "internalType": "string",
          "name": "status",
          "type": "string"
        },
        {
          "indexed": false,
          "internalType": "uint256",
          "name": "deployTime",
          "type": "uint256"
        },
        {
          "indexed": false,
          "internalType": "uint256",
          "name": "blockNumber",
          "type": "uint256"
        }
      ],
      "name": "studentUpdated",
      "type": "event"
    },
    {
      "anonymous": false,
      "inputs": [
        {
          "indexed": false,
          "internalType": "address",
          "name": "uniAddress",
          "type": "address"
        },
        {
          "indexed": false,
          "internalType": "string",
          "name": "uniName",
          "type": "string"
        },
        {
          "indexed": false,
          "internalType": "string[]",
          "name": "matricNo",
          "type": "string[]"
        },
        {
          "indexed": false,
          "internalType": "string",
          "name": "status",
          "type": "string"
        },
        {
          "indexed": false,
          "internalType": "uint256",
          "name": "deployTime",
          "type": "uint256"
        },
        {
          "indexed": false,
          "internalType": "uint256",
          "name": "blockNumber",
          "type": "uint256"
        }
      ],
      "name": "universitiesInserted",
      "type": "event"
    },
    {
      "inputs": [
        {
          "internalType": "uint256",
          "name": "",
          "type": "uint256"
        }
      ],
      "name": "allUniAdd",
      "outputs": [
        {
          "internalType": "address",
          "name": "",
          "type": "address"
        }
      ],
      "stateMutability": "view",
      "type": "function"
    },
    {
      "inputs": [
        {
          "internalType": "uint256",
          "name": "",
          "type": "uint256"
        }
      ],
      "name": "allUniName",
      "outputs": [
        {
          "internalType": "string",
          "name": "",
          "type": "string"
        }
      ],
      "stateMutability": "view",
      "type": "function"
    },
    {
      "inputs": [
        {
          "internalType": "string",
          "name": "",
          "type": "string"
        }
      ],
      "name": "scroll",
      "outputs": [
        {
          "internalType": "string",
          "name": "matricNumber",
          "type": "string"
        },
        {
          "internalType": "string",
          "name": "scrollIPFS",
          "type": "string"
        },
        {
          "internalType": "string",
          "name": "status",
          "type": "string"
        },
        {
          "internalType": "uint256",
          "name": "deployTime",
          "type": "uint256"
        },
        {
          "internalType": "uint256",
          "name": "blockNumber",
          "type": "uint256"
        }
      ],
      "stateMutability": "view",
      "type": "function"
    },
    {
      "inputs": [
        {
          "internalType": "string",
          "name": "",
          "type": "string"
        }
      ],
      "name": "students",
      "outputs": [
        {
          "internalType": "address",
          "name": "uniAddress",
          "type": "address"
        },
        {
          "internalType": "string",
          "name": "uniName",
          "type": "string"
        },
        {
          "internalType": "string",
          "name": "name",
          "type": "string"
        },
        {
          "internalType": "string",
          "name": "matricNumber",
          "type": "string"
        },
        {
          "internalType": "string",
          "name": "nationality",
          "type": "string"
        },
        {
          "internalType": "string",
          "name": "faculty",
          "type": "string"
        },
        {
          "internalType": "string",
          "name": "course",
          "type": "string"
        },
        {
          "internalType": "string",
          "name": "identityCardNo",
          "type": "string"
        },
        {
          "internalType": "string",
          "name": "gender",
          "type": "string"
        },
        {
          "internalType": "string",
          "name": "status",
          "type": "string"
        },
        {
          "internalType": "uint256",
          "name": "deployTime",
          "type": "uint256"
        },
        {
          "internalType": "uint256",
          "name": "blockNumber",
          "type": "uint256"
        }
      ],
      "stateMutability": "view",
      "type": "function"
    },
    {
      "inputs": [
        {
          "internalType": "address",
          "name": "",
          "type": "address"
        }
      ],
      "name": "universities",
      "outputs": [
        {
          "internalType": "address",
          "name": "uniAddress",
          "type": "address"
        },
        {
          "internalType": "string",
          "name": "uniName",
          "type": "string"
        },
        {
          "internalType": "string",
          "name": "status",
          "type": "string"
        },
        {
          "internalType": "uint256",
          "name": "deployTime",
          "type": "uint256"
        },
        {
          "internalType": "uint256",
          "name": "blockNumber",
          "type": "uint256"
        }
      ],
      "stateMutability": "view",
      "type": "function"
    },
    {
      "inputs": [
        {
          "internalType": "address",
          "name": "_sender",
          "type": "address"
        }
      ],
      "name": "verifyUniversity",
      "outputs": [
        {
          "internalType": "bool",
          "name": "",
          "type": "bool"
        }
      ],
      "stateMutability": "view",
      "type": "function"
    },
    {
      "inputs": [
        {
          "internalType": "address",
          "name": "_sender",
          "type": "address"
        },
        {
          "internalType": "string",
          "name": "_matNo",
          "type": "string"
        }
      ],
      "name": "verifyOwner",
      "outputs": [
        {
          "internalType": "bool",
          "name": "",
          "type": "bool"
        }
      ],
      "stateMutability": "view",
      "type": "function"
    },
    {
      "inputs": [],
      "name": "getAllUniversity",
      "outputs": [
        {
          "internalType": "address[]",
          "name": "",
          "type": "address[]"
        },
        {
          "internalType": "string[]",
          "name": "",
          "type": "string[]"
        }
      ],
      "stateMutability": "view",
      "type": "function"
    },
    {
      "inputs": [],
      "name": "getAllStudentMatricNumberInTheUniversity",
      "outputs": [
        {
          "internalType": "string[]",
          "name": "",
          "type": "string[]"
        }
      ],
      "stateMutability": "view",
      "type": "function"
    },
    {
      "inputs": [
        {
          "internalType": "string",
          "name": "_matricNumber",
          "type": "string"
        }
      ],
      "name": "getStudent",
      "outputs": [
        {
          "internalType": "address",
          "name": "",
          "type": "address"
        },
        {
          "internalType": "string",
          "name": "",
          "type": "string"
        },
        {
          "internalType": "string",
          "name": "",
          "type": "string"
        },
        {
          "internalType": "string",
          "name": "",
          "type": "string"
        },
        {
          "internalType": "string",
          "name": "",
          "type": "string"
        },
        {
          "internalType": "string",
          "name": "",
          "type": "string"
        },
        {
          "internalType": "string",
          "name": "",
          "type": "string"
        },
        {
          "internalType": "string",
          "name": "",
          "type": "string"
        },
        {
          "internalType": "string",
          "name": "",
          "type": "string"
        },
        {
          "internalType": "string",
          "name": "",
          "type": "string"
        },
        {
          "internalType": "uint256",
          "name": "",
          "type": "uint256"
        },
        {
          "internalType": "uint256",
          "name": "",
          "type": "uint256"
        }
      ],
      "stateMutability": "view",
      "type": "function"
    },
    {
      "inputs": [
        {
          "internalType": "address",
          "name": "_uniAdd",
          "type": "address"
        }
      ],
      "name": "getUniversity",
      "outputs": [
        {
          "internalType": "address",
          "name": "",
          "type": "address"
        },
        {
          "internalType": "string",
          "name": "",
          "type": "string"
        },
        {
          "internalType": "string",
          "name": "",
          "type": "string"
        }
      ],
      "stateMutability": "view",
      "type": "function"
    },
    {
      "inputs": [
        {
          "internalType": "address",
          "name": "_uniAddress",
          "type": "address"
        },
        {
          "internalType": "string",
          "name": "_uniName",
          "type": "string"
        }
      ],
      "name": "insertUniversity",
      "outputs": [],
      "stateMutability": "nonpayable",
      "type": "function"
    },
    {
      "inputs": [
        {
          "internalType": "address",
          "name": "_uniAddress",
          "type": "address"
        }
      ],
      "name": "universityCounter",
      "outputs": [
        {
          "internalType": "uint256",
          "name": "",
          "type": "uint256"
        }
      ],
      "stateMutability": "view",
      "type": "function"
    },
    {
      "inputs": [
        {
          "internalType": "address",
          "name": "_uniAddress",
          "type": "address"
        }
      ],
      "name": "deleteUniversity",
      "outputs": [],
      "stateMutability": "nonpayable",
      "type": "function"
    },
    {
      "inputs": [
        {
          "internalType": "string",
          "name": "_name",
          "type": "string"
        },
        {
          "internalType": "string",
          "name": "_matricNumber",
          "type": "string"
        },
        {
          "internalType": "string",
          "name": "_nationality",
          "type": "string"
        },
        {
          "internalType": "string",
          "name": "_faculty",
          "type": "string"
        },
        {
          "internalType": "string",
          "name": "_course",
          "type": "string"
        },
        {
          "internalType": "string",
          "name": "_ic",
          "type": "string"
        },
        {
          "internalType": "string",
          "name": "_gender",
          "type": "string"
        }
      ],
      "name": "insertStudent",
      "outputs": [],
      "stateMutability": "nonpayable",
      "type": "function"
    },
    {
      "inputs": [
        {
          "internalType": "string",
          "name": "_matNo",
          "type": "string"
        }
      ],
      "name": "matricNoCounter",
      "outputs": [
        {
          "internalType": "uint256",
          "name": "",
          "type": "uint256"
        }
      ],
      "stateMutability": "view",
      "type": "function"
    },
    {
      "inputs": [
        {
          "internalType": "string",
          "name": "_matricNumber",
          "type": "string"
        }
      ],
      "name": "deleteStudent",
      "outputs": [],
      "stateMutability": "nonpayable",
      "type": "function"
    },
    {
      "inputs": [
        {
          "internalType": "string",
          "name": "_name",
          "type": "string"
        },
        {
          "internalType": "string",
          "name": "_matricNumber",
          "type": "string"
        },
        {
          "internalType": "string",
          "name": "_nationality",
          "type": "string"
        },
        {
          "internalType": "string",
          "name": "_faculty",
          "type": "string"
        },
        {
          "internalType": "string",
          "name": "_course",
          "type": "string"
        },
        {
          "internalType": "string",
          "name": "_ic",
          "type": "string"
        },
        {
          "internalType": "string",
          "name": "_gender",
          "type": "string"
        }
      ],
      "name": "updateStudent",
      "outputs": [],
      "stateMutability": "nonpayable",
      "type": "function"
    },
    {
      "inputs": [
        {
          "internalType": "string",
          "name": "_matricNumber",
          "type": "string"
        }
      ],
      "name": "getStudentIPFSScroll",
      "outputs": [
        {
          "internalType": "string",
          "name": "",
          "type": "string"
        }
      ],
      "stateMutability": "view",
      "type": "function"
    },
    {
      "inputs": [
        {
          "internalType": "string",
          "name": "_matricNumber",
          "type": "string"
        },
        {
          "internalType": "string",
          "name": "_ipfsHash",
          "type": "string"
        }
      ],
      "name": "insertScroll",
      "outputs": [],
      "stateMutability": "nonpayable",
      "type": "function"
    },
    {
      "inputs": [
        {
          "internalType": "string",
          "name": "_matricNumber",
          "type": "string"
        },
        {
          "internalType": "string",
          "name": "_ipfsHash",
          "type": "string"
        }
      ],
      "name": "updateScroll",
      "outputs": [],
      "stateMutability": "nonpayable",
      "type": "function"
    }
  ],
  "bytecode": "0x608060405234801561001057600080fd5b5033600260006101000a81548173ffffffffffffffffffffffffffffffffffffffff021916908373ffffffffffffffffffffffffffffffffffffffff160217905550614dfb806100616000396000f3fe608060405234801561001057600080fd5b50600436106101375760003560e01c80638955895f116100b8578063d96c81e81161007c578063d96c81e8146103d8578063ea15b255146103f4578063eddaa6d414610412578063edf56b1c1461042e578063f09955601461044d578063f2b8b41e1461048157610137565b80638955895f146102e05780638996280a146102fc57806394a59ea614610330578063c7ef6bfb14610362578063d02966121461039d57610137565b80632f803d2e116100ff5780632f803d2e146101f057806343b5c1d81461022057806362350e79146102505780637ee106de14610280578063877af465146102b057610137565b8063021d49841461013c5780630267d05f1461016c5780630c96040c146101885780630d16ba5b146101a457806310206ff4146101d4575b600080fd5b61015660048036036101519190810190613d6e565b61049d565b6040516101639190614b5c565b60405180910390f35b61018660048036036101819190810190613daf565b61065e565b005b6101a2600480360361019d9190810190613daf565b61083e565b005b6101be60048036036101b99190810190613f61565b610a1e565b6040516101cb91906144f2565b60405180910390f35b6101ee60048036036101e99190810190613cb0565b610a5a565b005b61020a60048036036102059190810190613f61565b610d1d565b6040516102179190614988565b60405180910390f35b61023a60048036036102359190810190613cb0565b610dd6565b6040516102479190614b5c565b60405180910390f35b61026a60048036036102659190810190613cd9565b610e78565b604051610277919061496d565b60405180910390f35b61029a60048036036102959190810190613d6e565b610fa2565b6040516102a791906149aa565b60405180910390f35b6102ca60048036036102c59190810190613cb0565b611065565b6040516102d7919061496d565b60405180910390f35b6102fa60048036036102f59190810190613d6e565b61110b565b005b61031660048036036103119190810190613d2d565b61140a565b604051610327959493929190614a34565b60405180910390f35b61034a60048036036103459190810190613cb0565b61161e565b6040516103599392919061467c565b60405180910390f35b61037c60048036036103779190810190613d2d565b611bad565b6040516103949c9b9a999897969594939291906147ba565b60405180910390f35b6103b760048036036103b29190810190613d6e565b61219b565b6040516103cf9c9b9a999897969594939291906146c1565b60405180910390f35b6103f260048036036103ed9190810190613e1b565b612906565b005b6103fc612e6f565b604051610409919061494b565b60405180910390f35b61042c60048036036104279190810190613cd9565b612f97565b005b610436613284565b604051610444929190614914565b60405180910390f35b61046760048036036104629190810190613cb0565b6133fe565b6040516104789594939291906148b3565b60405180910390f35b61049b60048036036104969190810190613e1b565b613584565b005b60008060606000803373ffffffffffffffffffffffffffffffffffffffff1673ffffffffffffffffffffffffffffffffffffffff168152602001908152602001600020600201805480602002602001604051908101604052809291908181526020016000905b828210156105bf578382906000526020600020018054600181600116156101000203166002900480601f0160208091040260200160405190810160405280929190818152602001828054600181600116156101000203166002900480156105ab5780601f10610580576101008083540402835291602001916105ab565b820191906000526020600020905b81548152906001019060200180831161058e57829003601f168201915b505050505081526020019060010190610503565b50505050905060008090505b8151811161065557846040516020016105e491906144c4565b6040516020818303038152906040528051906020012082828151811061060657fe5b602002602001015160405160200161061e91906144ad565b60405160208183030381529060405280519060200120141561064857809250829350505050610659565b80806001019150506105cb565b5050505b919050565b600061066a3384610e78565b90506001151581151514156107fe576000835111158061068c57506000825111155b156106cc576040517f08c379a00000000000000000000000000000000000000000000000000000000081526004016106c390614adc565b60405180910390fd5b60606040518060400160405280600581526020017f416464656400000000000000000000000000000000000000000000000000000081525090506040518060a001604052808581526020018481526020018281526020014281526020014381525060058560405161073d91906144c4565b908152602001604051809103902060008201518160000190805190602001906107679291906139c4565b5060208201518160010190805190602001906107849291906139c4565b5060408201518160020190805190602001906107a19291906139c4565b5060608201518160030155608082015181600401559050507f418ddaeea5c61883e7e9e4d2f6bb8908f080aae66843ce115fc64c654af3728f84848342436040516107f09594939291906149cc565b60405180910390a150610839565b6040517f08c379a000000000000000000000000000000000000000000000000000000000815260040161083090614a9c565b60405180910390fd5b505050565b600061084a3384610e78565b90506001151581151514156109de576000835111158061086c57506000825111155b156108ac576040517f08c379a00000000000000000000000000000000000000000000000000000000081526004016108a390614adc565b60405180910390fd5b60606040518060400160405280600781526020017f557064617465640000000000000000000000000000000000000000000000000081525090506040518060a001604052808581526020018481526020018281526020014281526020014381525060058560405161091d91906144c4565b908152602001604051809103902060008201518160000190805190602001906109479291906139c4565b5060208201518160010190805190602001906109649291906139c4565b5060408201518160020190805190602001906109819291906139c4565b5060608201518160030155608082015181600401559050507f87b9f177b0bed43aad478a36b98e15b5b502fc2496818bdb4779095a347da55184848342436040516109d09594939291906149cc565b60405180910390a150610a19565b6040517f08c379a0000000000000000000000000000000000000000000000000000000008152600401610a1090614a9c565b60405180910390fd5b505050565b60038181548110610a2b57fe5b906000526020600020016000915054906101000a900473ffffffffffffffffffffffffffffffffffffffff1681565b600260009054906101000a900473ffffffffffffffffffffffffffffffffffffffff1673ffffffffffffffffffffffffffffffffffffffff163373ffffffffffffffffffffffffffffffffffffffff161415610cdf576000610abb82610dd6565b905060038181548110610aca57fe5b9060005260206000200160006101000a81549073ffffffffffffffffffffffffffffffffffffffff021916905560048181548110610b0457fe5b906000526020600020016000610b1a9190613a44565b6000808373ffffffffffffffffffffffffffffffffffffffff1673ffffffffffffffffffffffffffffffffffffffff168152602001908152602001600020600080820160006101000a81549073ffffffffffffffffffffffffffffffffffffffff0219169055600182016000610b909190613a44565b600282016000610ba09190613a8c565b600382016000610bb09190613a44565b6004820160009055600582016000905550506040518060400160405280600781526020017f44656c65746564000000000000000000000000000000000000000000000000008152506000808473ffffffffffffffffffffffffffffffffffffffff1673ffffffffffffffffffffffffffffffffffffffff1681526020019081526020016000206003019080519060200190610c4c929190613aad565b50436000808473ffffffffffffffffffffffffffffffffffffffff1673ffffffffffffffffffffffffffffffffffffffff16815260200190815260200160002060050181905550426000808473ffffffffffffffffffffffffffffffffffffffff1673ffffffffffffffffffffffffffffffffffffffff1681526020019081526020016000206004018190555050610d1a565b6040517f08c379a0000000000000000000000000000000000000000000000000000000008152600401610d1190614afc565b60405180910390fd5b50565b60048181548110610d2a57fe5b906000526020600020016000915090508054600181600116156101000203166002900480601f016020809104026020016040519081016040528092919081815260200182805460018160011615610100020316600290048015610dce5780601f10610da357610100808354040283529160200191610dce565b820191906000526020600020905b815481529060010190602001808311610db157829003601f168201915b505050505081565b60008060008090505b6003805490508111610e70578373ffffffffffffffffffffffffffffffffffffffff1660038281548110610e0f57fe5b9060005260206000200160009054906101000a900473ffffffffffffffffffffffffffffffffffffffff1673ffffffffffffffffffffffffffffffffffffffff161415610e63578091508192505050610e73565b8080600101915050610ddf565b50505b919050565b60003373ffffffffffffffffffffffffffffffffffffffff166000808573ffffffffffffffffffffffffffffffffffffffff1673ffffffffffffffffffffffffffffffffffffffff16815260200190815260200160002060000160009054906101000a900473ffffffffffffffffffffffffffffffffffffffff1673ffffffffffffffffffffffffffffffffffffffff161415610f92573373ffffffffffffffffffffffffffffffffffffffff16600183604051610f3691906144c4565b908152602001604051809103902060000160009054906101000a900473ffffffffffffffffffffffffffffffffffffffff1673ffffffffffffffffffffffffffffffffffffffff161415610f8d5760019050610f9c565b610f9b565b60009050610f9c565b5b92915050565b6060600582604051610fb491906144c4565b90815260200160405180910390206001018054600181600116156101000203166002900480601f0160208091040260200160405190810160405280929190818152602001828054600181600116156101000203166002900480156110595780601f1061102e57610100808354040283529160200191611059565b820191906000526020600020905b81548152906001019060200180831161103c57829003601f168201915b50505050509050919050565b60003373ffffffffffffffffffffffffffffffffffffffff166000808473ffffffffffffffffffffffffffffffffffffffff1673ffffffffffffffffffffffffffffffffffffffff16815260200190815260200160002060000160009054906101000a900473ffffffffffffffffffffffffffffffffffffffff1673ffffffffffffffffffffffffffffffffffffffff1614156111055760019050611106565b5b919050565b60006111173383610e78565b9050600061112433611065565b90506001151581151514156113ca5760011515821515141561138a57600061114b8461049d565b905060018460405161115d91906144c4565b9081526020016040518091039020600080820160006101000a81549073ffffffffffffffffffffffffffffffffffffffff02191690556001820160006111a39190613a44565b6002820160006111b39190613a44565b6003820160006111c39190613a44565b6004820160006111d39190613a44565b6005820160006111e39190613a44565b6006820160006111f39190613a44565b6007820160006112039190613a44565b6008820160006112139190613a44565b6009820160006112239190613a44565b600a820160009055600b82016000905550506000803373ffffffffffffffffffffffffffffffffffffffff1673ffffffffffffffffffffffffffffffffffffffff168152602001908152602001600020600201818154811061128157fe5b9060005260206000200160006112979190613a44565b6040518060400160405280600781526020017f44656c65746564000000000000000000000000000000000000000000000000008152506001856040516112dd91906144c4565b90815260200160405180910390206009019080519060200190611301929190613aad565b504260018560405161131391906144c4565b9081526020016040518091039020600a01819055504360018560405161133991906144c4565b9081526020016040518091039020600b01819055508360018560405161135f91906144c4565b90815260200160405180910390206003019080519060200190611383929190613aad565b50506113c5565b6040517f08c379a00000000000000000000000000000000000000000000000000000000081526004016113bc90614a9c565b60405180910390fd5b611405565b6040517f08c379a00000000000000000000000000000000000000000000000000000000081526004016113fc90614b3c565b60405180910390fd5b505050565b600581805160208101820180518482526020830160208501208183528095505050505050600091509050806000018054600181600116156101000203166002900480601f0160208091040260200160405190810160405280929190818152602001828054600181600116156101000203166002900480156114cc5780601f106114a1576101008083540402835291602001916114cc565b820191906000526020600020905b8154815290600101906020018083116114af57829003601f168201915b505050505090806001018054600181600116156101000203166002900480601f01602080910402602001604051908101604052809291908181526020018280546001816001161561010002031660029004801561156a5780601f1061153f5761010080835404028352916020019161156a565b820191906000526020600020905b81548152906001019060200180831161154d57829003601f168201915b505050505090806002018054600181600116156101000203166002900480601f0160208091040260200160405190810160405280929190818152602001828054600181600116156101000203166002900480156116085780601f106115dd57610100808354040283529160200191611608565b820191906000526020600020905b8154815290600101906020018083116115eb57829003601f168201915b5050505050908060030154908060040154905085565b600060608060008490508473ffffffffffffffffffffffffffffffffffffffff166000808773ffffffffffffffffffffffffffffffffffffffff1673ffffffffffffffffffffffffffffffffffffffff16815260200190815260200160002060000160009054906101000a900473ffffffffffffffffffffffffffffffffffffffff1673ffffffffffffffffffffffffffffffffffffffff1614156118e5576000808273ffffffffffffffffffffffffffffffffffffffff1673ffffffffffffffffffffffffffffffffffffffff16815260200190815260200160002060000160009054906101000a900473ffffffffffffffffffffffffffffffffffffffff166000808373ffffffffffffffffffffffffffffffffffffffff1673ffffffffffffffffffffffffffffffffffffffff1681526020019081526020016000206001016000808473ffffffffffffffffffffffffffffffffffffffff1673ffffffffffffffffffffffffffffffffffffffff168152602001908152602001600020600301818054600181600116156101000203166002900480601f0160208091040260200160405190810160405280929190818152602001828054600181600116156101000203166002900480156118365780601f1061180b57610100808354040283529160200191611836565b820191906000526020600020905b81548152906001019060200180831161181957829003601f168201915b50505050509150808054600181600116156101000203166002900480601f0160208091040260200160405190810160405280929190818152602001828054600181600116156101000203166002900480156118d25780601f106118a7576101008083540402835291602001916118d2565b820191906000526020600020905b8154815290600101906020018083116118b557829003601f168201915b5050505050905093509350935050611ba6565b60056000808773ffffffffffffffffffffffffffffffffffffffff1673ffffffffffffffffffffffffffffffffffffffff1681526020019081526020016000206003018054600181600116156101000203166002900490501115611b6b576000808273ffffffffffffffffffffffffffffffffffffffff1673ffffffffffffffffffffffffffffffffffffffff16815260200190815260200160002060000160009054906101000a900473ffffffffffffffffffffffffffffffffffffffff166000808373ffffffffffffffffffffffffffffffffffffffff1673ffffffffffffffffffffffffffffffffffffffff1681526020019081526020016000206001016000808473ffffffffffffffffffffffffffffffffffffffff1673ffffffffffffffffffffffffffffffffffffffff168152602001908152602001600020600301818054600181600116156101000203166002900480601f016020809104026020016040519081016040528092919081815260200182805460018160011615610100020316600290048015611abc5780601f10611a9157610100808354040283529160200191611abc565b820191906000526020600020905b815481529060010190602001808311611a9f57829003601f168201915b50505050509150808054600181600116156101000203166002900480601f016020809104026020016040519081016040528092919081815260200182805460018160011615610100020316600290048015611b585780601f10611b2d57610100808354040283529160200191611b58565b820191906000526020600020905b815481529060010190602001808311611b3b57829003601f168201915b5050505050905093509350935050611ba6565b6040517f08c379a0000000000000000000000000000000000000000000000000000000008152600401611b9d90614b1c565b60405180910390fd5b9193909250565b6001818051602081018201805184825260208301602085012081835280955050505050506000915090508060000160009054906101000a900473ffffffffffffffffffffffffffffffffffffffff1690806001018054600181600116156101000203166002900480601f016020809104026020016040519081016040528092919081815260200182805460018160011615610100020316600290048015611c955780601f10611c6a57610100808354040283529160200191611c95565b820191906000526020600020905b815481529060010190602001808311611c7857829003601f168201915b505050505090806002018054600181600116156101000203166002900480601f016020809104026020016040519081016040528092919081815260200182805460018160011615610100020316600290048015611d335780601f10611d0857610100808354040283529160200191611d33565b820191906000526020600020905b815481529060010190602001808311611d1657829003601f168201915b505050505090806003018054600181600116156101000203166002900480601f016020809104026020016040519081016040528092919081815260200182805460018160011615610100020316600290048015611dd15780601f10611da657610100808354040283529160200191611dd1565b820191906000526020600020905b815481529060010190602001808311611db457829003601f168201915b505050505090806004018054600181600116156101000203166002900480601f016020809104026020016040519081016040528092919081815260200182805460018160011615610100020316600290048015611e6f5780601f10611e4457610100808354040283529160200191611e6f565b820191906000526020600020905b815481529060010190602001808311611e5257829003601f168201915b505050505090806005018054600181600116156101000203166002900480601f016020809104026020016040519081016040528092919081815260200182805460018160011615610100020316600290048015611f0d5780601f10611ee257610100808354040283529160200191611f0d565b820191906000526020600020905b815481529060010190602001808311611ef057829003601f168201915b505050505090806006018054600181600116156101000203166002900480601f016020809104026020016040519081016040528092919081815260200182805460018160011615610100020316600290048015611fab5780601f10611f8057610100808354040283529160200191611fab565b820191906000526020600020905b815481529060010190602001808311611f8e57829003601f168201915b505050505090806007018054600181600116156101000203166002900480601f0160208091040260200160405190810160405280929190818152602001828054600181600116156101000203166002900480156120495780601f1061201e57610100808354040283529160200191612049565b820191906000526020600020905b81548152906001019060200180831161202c57829003601f168201915b505050505090806008018054600181600116156101000203166002900480601f0160208091040260200160405190810160405280929190818152602001828054600181600116156101000203166002900480156120e75780601f106120bc576101008083540402835291602001916120e7565b820191906000526020600020905b8154815290600101906020018083116120ca57829003601f168201915b505050505090806009018054600181600116156101000203166002900480601f0160208091040260200160405190810160405280929190818152602001828054600181600116156101000203166002900480156121855780601f1061215a57610100808354040283529160200191612185565b820191906000526020600020905b81548152906001019060200180831161216857829003601f168201915b50505050509080600a01549080600b015490508c565b6000606080606080606080606080606060008060608d90506001816040516121c391906144c4565b908152602001604051809103902060000160009054906101000a900473ffffffffffffffffffffffffffffffffffffffff1660018260405161220591906144c4565b908152602001604051809103902060010160018360405161222691906144c4565b908152602001604051809103902060020160018460405161224791906144c4565b908152602001604051809103902060030160018560405161226891906144c4565b908152602001604051809103902060040160018660405161228991906144c4565b90815260200160405180910390206005016001876040516122aa91906144c4565b90815260200160405180910390206006016001886040516122cb91906144c4565b90815260200160405180910390206007016001896040516122ec91906144c4565b908152602001604051809103902060080160018a60405161230d91906144c4565b908152602001604051809103902060090160018b60405161232e91906144c4565b9081526020016040518091039020600a015460018c60405161235091906144c4565b9081526020016040518091039020600b01548a8054600181600116156101000203166002900480601f0160208091040260200160405190810160405280929190818152602001828054600181600116156101000203166002900480156123f75780601f106123cc576101008083540402835291602001916123f7565b820191906000526020600020905b8154815290600101906020018083116123da57829003601f168201915b50505050509a50898054600181600116156101000203166002900480601f0160208091040260200160405190810160405280929190818152602001828054600181600116156101000203166002900480156124935780601f1061246857610100808354040283529160200191612493565b820191906000526020600020905b81548152906001019060200180831161247657829003601f168201915b50505050509950888054600181600116156101000203166002900480601f01602080910402602001604051908101604052809291908181526020018280546001816001161561010002031660029004801561252f5780601f106125045761010080835404028352916020019161252f565b820191906000526020600020905b81548152906001019060200180831161251257829003601f168201915b50505050509850878054600181600116156101000203166002900480601f0160208091040260200160405190810160405280929190818152602001828054600181600116156101000203166002900480156125cb5780601f106125a0576101008083540402835291602001916125cb565b820191906000526020600020905b8154815290600101906020018083116125ae57829003601f168201915b50505050509750868054600181600116156101000203166002900480601f0160208091040260200160405190810160405280929190818152602001828054600181600116156101000203166002900480156126675780601f1061263c57610100808354040283529160200191612667565b820191906000526020600020905b81548152906001019060200180831161264a57829003601f168201915b50505050509650858054600181600116156101000203166002900480601f0160208091040260200160405190810160405280929190818152602001828054600181600116156101000203166002900480156127035780601f106126d857610100808354040283529160200191612703565b820191906000526020600020905b8154815290600101906020018083116126e657829003601f168201915b50505050509550848054600181600116156101000203166002900480601f01602080910402602001604051908101604052809291908181526020018280546001816001161561010002031660029004801561279f5780601f106127745761010080835404028352916020019161279f565b820191906000526020600020905b81548152906001019060200180831161278257829003601f168201915b50505050509450838054600181600116156101000203166002900480601f01602080910402602001604051908101604052809291908181526020018280546001816001161561010002031660029004801561283b5780601f106128105761010080835404028352916020019161283b565b820191906000526020600020905b81548152906001019060200180831161281e57829003601f168201915b50505050509350828054600181600116156101000203166002900480601f0160208091040260200160405190810160405280929190818152602001828054600181600116156101000203166002900480156128d75780601f106128ac576101008083540402835291602001916128d7565b820191906000526020600020905b8154815290600101906020018083116128ba57829003601f168201915b505050505092509c509c509c509c509c509c509c509c509c509c509c509c505091939597999b5091939597999b565b600061291133611065565b9050600115158115151415612e2a576000885111158061293357506000875111155b8061294057506000865111155b8061294d57506000855111155b8061295a57506000825111155b8061296757506000845111155b156129a7576040517f08c379a000000000000000000000000000000000000000000000000000000000815260040161299e90614adc565b60405180910390fd5b866040516020016129b891906144c4565b604051602081830303815290604052805190602001206001886040516129de91906144c4565b90815260200160405180910390206003016040516020016129ff91906144db565b604051602081830303815290604052805190602001201415612a56576040517f08c379a0000000000000000000000000000000000000000000000000000000008152600401612a4d90614abc565b60405180910390fd5b60606000803373ffffffffffffffffffffffffffffffffffffffff1673ffffffffffffffffffffffffffffffffffffffff1681526020019081526020016000206001018054600181600116156101000203166002900480601f016020809104026020016040519081016040528092919081815260200182805460018160011615610100020316600290048015612b2d5780601f10612b0257610100808354040283529160200191612b2d565b820191906000526020600020905b815481529060010190602001808311612b1057829003601f168201915b5050505050905060606040518060400160405280600581526020017f416464656400000000000000000000000000000000000000000000000000000081525090506000803373ffffffffffffffffffffffffffffffffffffffff1673ffffffffffffffffffffffffffffffffffffffff16815260200190815260200160002060020189908060018154018082558091505060019003906000526020600020016000909190919091509080519060200190612be8929190613aad565b506040518061018001604052803373ffffffffffffffffffffffffffffffffffffffff1681526020018381526020018b81526020018a81526020018981526020018881526020018781526020018681526020018581526020018281526020014281526020014381525060018a604051612c6191906144c4565b908152602001604051809103902060008201518160000160006101000a81548173ffffffffffffffffffffffffffffffffffffffff021916908373ffffffffffffffffffffffffffffffffffffffff1602179055506020820151816001019080519060200190612cd29291906139c4565b506040820151816002019080519060200190612cef9291906139c4565b506060820151816003019080519060200190612d0c9291906139c4565b506080820151816004019080519060200190612d299291906139c4565b5060a0820151816005019080519060200190612d469291906139c4565b5060c0820151816006019080519060200190612d639291906139c4565b5060e0820151816007019080519060200190612d809291906139c4565b50610100820151816008019080519060200190612d9e9291906139c4565b50610120820151816009019080519060200190612dbc9291906139c4565b5061014082015181600a015561016082015181600b01559050507f809d0759695249848c7553d395245926cee38f003936028dc45203ae7458e74a33838c8c8c8c8c8c8c8a4243604051612e1b9c9b9a9998979695949392919061450d565b60405180910390a15050612e65565b6040517f08c379a0000000000000000000000000000000000000000000000000000000008152600401612e5c90614b3c565b60405180910390fd5b5050505050505050565b60606000803373ffffffffffffffffffffffffffffffffffffffff1673ffffffffffffffffffffffffffffffffffffffff168152602001908152602001600020600201805480602002602001604051908101604052809291908181526020016000905b82821015612f8e578382906000526020600020018054600181600116156101000203166002900480601f016020809104026020016040519081016040528092919081815260200182805460018160011615610100020316600290048015612f7a5780601f10612f4f57610100808354040283529160200191612f7a565b820191906000526020600020905b815481529060010190602001808311612f5d57829003601f168201915b505050505081526020019060010190612ed2565b50505050905090565b600260009054906101000a900473ffffffffffffffffffffffffffffffffffffffff1673ffffffffffffffffffffffffffffffffffffffff163373ffffffffffffffffffffffffffffffffffffffff161415613245576003829080600181540180825580915050600190039060005260206000200160009091909190916101000a81548173ffffffffffffffffffffffffffffffffffffffff021916908373ffffffffffffffffffffffffffffffffffffffff16021790555060048190806001815401808255809150506001900390600052602060002001600090919091909150908051906020019061308b929190613aad565b506060806040518060400160405280600581526020017f416464656400000000000000000000000000000000000000000000000000000081525090506040518060c001604052808573ffffffffffffffffffffffffffffffffffffffff168152602001848152602001838152602001828152602001428152602001438152506000808673ffffffffffffffffffffffffffffffffffffffff1673ffffffffffffffffffffffffffffffffffffffff16815260200190815260200160002060008201518160000160006101000a81548173ffffffffffffffffffffffffffffffffffffffff021916908373ffffffffffffffffffffffffffffffffffffffff16021790555060208201518160010190805190602001906131ab9291906139c4565b5060408201518160020190805190602001906131c8929190613b2d565b5060608201518160030190805190602001906131e59291906139c4565b506080820151816004015560a082015181600501559050507f31f361d3e471c24147a5580ebc5a3db2edd60707568b05a95fcc7889acb010b884848484424360405161323696959493929190614606565b60405180910390a15050613280565b6040517f08c379a000000000000000000000000000000000000000000000000000000000815260040161327790614afc565b60405180910390fd5b5050565b606080600360048180548060200260200160405190810160405280929190818152602001828054801561330c57602002820191906000526020600020905b8160009054906101000a900473ffffffffffffffffffffffffffffffffffffffff1673ffffffffffffffffffffffffffffffffffffffff16815260200190600101908083116132c2575b5050505050915080805480602002602001604051908101604052809291908181526020016000905b828210156133f0578382906000526020600020018054600181600116156101000203166002900480601f0160208091040260200160405190810160405280929190818152602001828054600181600116156101000203166002900480156133dc5780601f106133b1576101008083540402835291602001916133dc565b820191906000526020600020905b8154815290600101906020018083116133bf57829003601f168201915b505050505081526020019060010190613334565b505050509050915091509091565b60006020528060005260406000206000915090508060000160009054906101000a900473ffffffffffffffffffffffffffffffffffffffff1690806001018054600181600116156101000203166002900480601f0160208091040260200160405190810160405280929190818152602001828054600181600116156101000203166002900480156134d05780601f106134a5576101008083540402835291602001916134d0565b820191906000526020600020905b8154815290600101906020018083116134b357829003601f168201915b505050505090806003018054600181600116156101000203166002900480601f01602080910402602001604051908101604052809291908181526020018280546001816001161561010002031660029004801561356e5780601f106135435761010080835404028352916020019161356e565b820191906000526020600020905b81548152906001019060200180831161355157829003601f168201915b5050505050908060040154908060050154905085565b60006135903388610e78565b905060011515811515141561397f57600088511115806135b257506000875111155b806135bf57506000865111155b806135cc57506000855111155b806135d957506000825111155b806135e657506000845111155b15613626576040517f08c379a000000000000000000000000000000000000000000000000000000000815260040161361d90614adc565b60405180910390fd5b60606000803373ffffffffffffffffffffffffffffffffffffffff1673ffffffffffffffffffffffffffffffffffffffff1681526020019081526020016000206001018054600181600116156101000203166002900480601f0160208091040260200160405190810160405280929190818152602001828054600181600116156101000203166002900480156136fd5780601f106136d2576101008083540402835291602001916136fd565b820191906000526020600020905b8154815290600101906020018083116136e057829003601f168201915b5050505050905060606040518060400160405280600781526020017f557064617465640000000000000000000000000000000000000000000000000081525090506040518061018001604052803373ffffffffffffffffffffffffffffffffffffffff1681526020018381526020018b81526020018a81526020018981526020018881526020018781526020018681526020018581526020018281526020014281526020014381525060018a6040516137b691906144c4565b908152602001604051809103902060008201518160000160006101000a81548173ffffffffffffffffffffffffffffffffffffffff021916908373ffffffffffffffffffffffffffffffffffffffff16021790555060208201518160010190805190602001906138279291906139c4565b5060408201518160020190805190602001906138449291906139c4565b5060608201518160030190805190602001906138619291906139c4565b50608082015181600401908051906020019061387e9291906139c4565b5060a082015181600501908051906020019061389b9291906139c4565b5060c08201518160060190805190602001906138b89291906139c4565b5060e08201518160070190805190602001906138d59291906139c4565b506101008201518160080190805190602001906138f39291906139c4565b506101208201518160090190805190602001906139119291906139c4565b5061014082015181600a015561016082015181600b01559050507f5c88b3b89af35d192358366eda2b19200b64db94041fdd764e8afb10a98df46b33838c8c8c8c8c8c8c8a42436040516139709c9b9a9998979695949392919061450d565b60405180910390a150506139ba565b6040517f08c379a00000000000000000000000000000000000000000000000000000000081526004016139b190614a9c565b60405180910390fd5b5050505050505050565b828054600181600116156101000203166002900490600052602060002090601f016020900481019282601f10613a0557805160ff1916838001178555613a33565b82800160010185558215613a33579182015b82811115613a32578251825591602001919060010190613a17565b5b509050613a409190613b8d565b5090565b50805460018160011615610100020316600290046000825580601f10613a6a5750613a89565b601f016020900490600052602060002090810190613a889190613b8d565b5b50565b5080546000825590600052602060002090810190613aaa9190613bb2565b50565b828054600181600116156101000203166002900490600052602060002090601f016020900481019282601f10613aee57805160ff1916838001178555613b1c565b82800160010185558215613b1c579182015b82811115613b1b578251825591602001919060010190613b00565b5b509050613b299190613b8d565b5090565b828054828255906000526020600020908101928215613b7c579160200282015b82811115613b7b578251829080519060200190613b6b9291906139c4565b5091602001919060010190613b4d565b5b509050613b899190613bb2565b5090565b613baf91905b80821115613bab576000816000905550600101613b93565b5090565b90565b613bdb91905b80821115613bd75760008181613bce9190613a44565b50600101613bb8565b5090565b90565b600081359050613bed81614d97565b92915050565b600082601f830112613c0457600080fd5b8135613c17613c1282614ba4565b614b77565b91508082526020830160208301858383011115613c3357600080fd5b613c3e838284614d44565b50505092915050565b600082601f830112613c5857600080fd5b8135613c6b613c6682614bd0565b614b77565b91508082526020830160208301858383011115613c8757600080fd5b613c92838284614d44565b50505092915050565b600081359050613caa81614dae565b92915050565b600060208284031215613cc257600080fd5b6000613cd084828501613bde565b91505092915050565b60008060408385031215613cec57600080fd5b6000613cfa85828601613bde565b925050602083013567ffffffffffffffff811115613d1757600080fd5b613d2385828601613c47565b9150509250929050565b600060208284031215613d3f57600080fd5b600082013567ffffffffffffffff811115613d5957600080fd5b613d6584828501613bf3565b91505092915050565b600060208284031215613d8057600080fd5b600082013567ffffffffffffffff811115613d9a57600080fd5b613da684828501613c47565b91505092915050565b60008060408385031215613dc257600080fd5b600083013567ffffffffffffffff811115613ddc57600080fd5b613de885828601613c47565b925050602083013567ffffffffffffffff811115613e0557600080fd5b613e1185828601613c47565b9150509250929050565b600080600080600080600060e0888a031215613e3657600080fd5b600088013567ffffffffffffffff811115613e5057600080fd5b613e5c8a828b01613c47565b975050602088013567ffffffffffffffff811115613e7957600080fd5b613e858a828b01613c47565b965050604088013567ffffffffffffffff811115613ea257600080fd5b613eae8a828b01613c47565b955050606088013567ffffffffffffffff811115613ecb57600080fd5b613ed78a828b01613c47565b945050608088013567ffffffffffffffff811115613ef457600080fd5b613f008a828b01613c47565b93505060a088013567ffffffffffffffff811115613f1d57600080fd5b613f298a828b01613c47565b92505060c088013567ffffffffffffffff811115613f4657600080fd5b613f528a828b01613c47565b91505092959891949750929550565b600060208284031215613f7357600080fd5b6000613f8184828501613c9b565b91505092915050565b6000613f968383613fc5565b60208301905092915050565b6000613fae838361412f565b905092915050565b613fbf81614d0e565b82525050565b613fce81614cc6565b82525050565b613fdd81614cc6565b82525050565b6000613fee82614c31565b613ff88185614c77565b935061400383614bfc565b8060005b8381101561403457815161401b8882613f8a565b975061402683614c5d565b925050600181019050614007565b5085935050505092915050565b600061404c82614c3c565b6140568185614c88565b93508360208202850161406885614c0c565b8060005b858110156140a457848403895281516140858582613fa2565b945061409083614c6a565b925060208a0199505060018101905061406c565b50829750879550505050505092915050565b6140bf81614cd8565b82525050565b60006140d082614c52565b6140da8185614caa565b93506140ea818560208601614d53565b6140f381614d86565b840191505092915050565b600061410982614c52565b6141138185614cbb565b9350614123818560208601614d53565b80840191505092915050565b600061413a82614c47565b6141448185614c99565b9350614154818560208601614d53565b61415d81614d86565b840191505092915050565b600061417382614c47565b61417d8185614caa565b935061418d818560208601614d53565b61419681614d86565b840191505092915050565b60006141ac82614c47565b6141b68185614cbb565b93506141c6818560208601614d53565b80840191505092915050565b6000815460018116600081146141ef576001811461421457614258565b607f60028304166142008187614cbb565b955060ff1983168652808601935050614258565b600282046142228187614cbb565b955061422d85614c1c565b60005b8281101561424f57815481890152600182019150602081019050614230565b82880195505050505b505092915050565b600061426d602f83614caa565b91507f546869732073747564656e74207265636f7264206973206e6f742066726f6d2060008301527f796f757220756e697665727369747900000000000000000000000000000000006020830152604082019050919050565b60006142d3601583614caa565b91507f53747564656e7420616c726561647920657869737400000000000000000000006000830152602082019050919050565b6000614313601283614caa565b91507f4e6f7420656e6f7567682064657461696c7300000000000000000000000000006000830152602082019050919050565b6000614353605283614caa565b91507f596f7520646f206e6f742068617665207468652063726564656e7469616c207460008301527f6f20646f207375636820616374696f6e20617320796f7520617265206e6f742060208301527f74686520636f6e7472616374206f776e657200000000000000000000000000006040830152606082019050919050565b60006143df602483614caa565b91507f5468617420556e6976657273697479206973206e6f7420696e2074686520737960008301527f7374656d000000000000000000000000000000000000000000000000000000006020830152604082019050919050565b6000614445603383614caa565b91507f596f757220756e69766572736974792061646472657373206973206e6f74206c60008301527f697374656420696e207468652073797374656d000000000000000000000000006020830152604082019050919050565b6144a781614d04565b82525050565b60006144b982846141a1565b915081905092915050565b60006144d082846140fe565b915081905092915050565b60006144e782846141d2565b915081905092915050565b60006020820190506145076000830184613fd4565b92915050565b600061018082019050614523600083018f613fb6565b8181036020830152614535818e6140c5565b90508181036040830152614549818d6140c5565b9050818103606083015261455d818c6140c5565b90508181036080830152614571818b6140c5565b905081810360a0830152614585818a6140c5565b905081810360c083015261459981896140c5565b905081810360e08301526145ad81886140c5565b90508181036101008301526145c281876140c5565b90508181036101208301526145d781866140c5565b90506145e761014083018561449e565b6145f561016083018461449e565b9d9c50505050505050505050505050565b600060c08201905061461b6000830189613fd4565b818103602083015261462d81886140c5565b905081810360408301526146418187614041565b9050818103606083015261465581866140c5565b9050614664608083018561449e565b61467160a083018461449e565b979650505050505050565b60006060820190506146916000830186613fd4565b81810360208301526146a381856140c5565b905081810360408301526146b781846140c5565b9050949350505050565b6000610180820190506146d7600083018f613fd4565b81810360208301526146e9818e6140c5565b905081810360408301526146fd818d6140c5565b90508181036060830152614711818c6140c5565b90508181036080830152614725818b6140c5565b905081810360a0830152614739818a6140c5565b905081810360c083015261474d81896140c5565b905081810360e083015261476181886140c5565b905081810361010083015261477681876140c5565b905081810361012083015261478b81866140c5565b905061479b61014083018561449e565b6147a961016083018461449e565b9d9c50505050505050505050505050565b6000610180820190506147d0600083018f613fd4565b81810360208301526147e2818e614168565b905081810360408301526147f6818d614168565b9050818103606083015261480a818c614168565b9050818103608083015261481e818b614168565b905081810360a0830152614832818a614168565b905081810360c08301526148468189614168565b905081810360e083015261485a8188614168565b905081810361010083015261486f8187614168565b90508181036101208301526148848186614168565b905061489461014083018561449e565b6148a261016083018461449e565b9d9c50505050505050505050505050565b600060a0820190506148c86000830188613fd4565b81810360208301526148da8187614168565b905081810360408301526148ee8186614168565b90506148fd606083018561449e565b61490a608083018461449e565b9695505050505050565b6000604082019050818103600083015261492e8185613fe3565b905081810360208301526149428184614041565b90509392505050565b600060208201905081810360008301526149658184614041565b905092915050565b600060208201905061498260008301846140b6565b92915050565b600060208201905081810360008301526149a28184614168565b905092915050565b600060208201905081810360008301526149c481846140c5565b905092915050565b600060a08201905081810360008301526149e681886140c5565b905081810360208301526149fa81876140c5565b90508181036040830152614a0e81866140c5565b9050614a1d606083018561449e565b614a2a608083018461449e565b9695505050505050565b600060a0820190508181036000830152614a4e8188614168565b90508181036020830152614a628187614168565b90508181036040830152614a768186614168565b9050614a85606083018561449e565b614a92608083018461449e565b9695505050505050565b60006020820190508181036000830152614ab581614260565b9050919050565b60006020820190508181036000830152614ad5816142c6565b9050919050565b60006020820190508181036000830152614af581614306565b9050919050565b60006020820190508181036000830152614b1581614346565b9050919050565b60006020820190508181036000830152614b35816143d2565b9050919050565b60006020820190508181036000830152614b5581614438565b9050919050565b6000602082019050614b71600083018461449e565b92915050565b6000604051905081810181811067ffffffffffffffff82111715614b9a57600080fd5b8060405250919050565b600067ffffffffffffffff821115614bbb57600080fd5b601f19601f8301169050602081019050919050565b600067ffffffffffffffff821115614be757600080fd5b601f19601f8301169050602081019050919050565b6000819050602082019050919050565b6000819050602082019050919050565b60008190508160005260206000209050919050565b600081519050919050565b600081519050919050565b600081519050919050565b600081519050919050565b6000602082019050919050565b6000602082019050919050565b600082825260208201905092915050565b600082825260208201905092915050565b600082825260208201905092915050565b600082825260208201905092915050565b600081905092915050565b6000614cd182614ce4565b9050919050565b60008115159050919050565b600073ffffffffffffffffffffffffffffffffffffffff82169050919050565b6000819050919050565b6000614d1982614d20565b9050919050565b6000614d2b82614d32565b9050919050565b6000614d3d82614ce4565b9050919050565b82818337600083830152505050565b60005b83811015614d71578082015181840152602081019050614d56565b83811115614d80576000848401525b50505050565b6000601f19601f8301169050919050565b614da081614cc6565b8114614dab57600080fd5b50565b614db781614d04565b8114614dc257600080fd5b5056fea2646970667358221220aa2ac2aa484f2d79f1703ac1ffa44fe8c7cdca9a6e915282d69ea09963cd2b4264736f6c63430006010033",
  "source": "pragma solidity ^0.6.0; // boleh tukar ke 0.5.0\r\npragma experimental ABIEncoderV2;\r\n\r\ncontract Escroll\r\n{\r\n    \r\n    mapping(address => University) public universities;\r\n    struct University\r\n    {\r\n        address uniAddress;\r\n        string uniName;\r\n        string[] matricNo;\r\n        string status;\r\n        \r\n        uint deployTime;\r\n        uint blockNumber;\r\n    }\r\n    \r\n    event universitiesInserted\r\n    (\r\n        address uniAddress,\r\n        string uniName,\r\n        string[] matricNo,\r\n        string status,\r\n        \r\n        uint deployTime,\r\n        uint blockNumber\r\n    );    \r\n    \r\n    // boleh tambah status untuk tahu dia dah updated or added\r\n    // Kat sini maybe boleh letak name, matric number, gender, nationality dengan IC, kat scroll boleh letak detail pasal course, faculty kalau2 uni nak lebih dari 1 bahasa.\r\n    mapping(string => Student) public students;\r\n    struct Student\r\n    {\r\n        address uniAddress;\r\n        string uniName;\r\n        \r\n        string name;\r\n        string matricNumber;\r\n        string nationality; //citizenship\r\n        string faculty; //kulliyah\r\n        string course; // programme\r\n        string identityCardNo; // Keep in view\r\n        // uint birtDate; // KIV\r\n        string gender;\r\n        \r\n        string status;\r\n        uint deployTime;\r\n        uint blockNumber;\r\n    }\r\n    \r\n\r\n    \r\n    event studentInserted\r\n    (\r\n        address uniAddress,\r\n        string uniName,\r\n        \r\n        \r\n        string name,\r\n        string matricNumber,\r\n        string nationality,\r\n        string faculty,\r\n        string course,\r\n        string identityCardNo, // Keep in view\r\n        string gender,\r\n        \r\n        string status,\r\n        uint deployTime,\r\n        uint blockNumber\r\n    );\r\n    \r\n    event studentUpdated\r\n    (\r\n        address uniAddress,\r\n        string uniName,\r\n        \r\n        \r\n        string name,\r\n        string matricNumber,\r\n        string nationality,\r\n        string faculty,\r\n        string course,\r\n        string identityCardNo, // Keep in view\r\n        string gender,\r\n        \r\n        string status,\r\n        uint deployTime,\r\n        uint blockNumber\r\n    );\r\n    \r\n    address contractOwner;\r\n    constructor() public\r\n    { \r\n        //boleh tukar jadi Owner = (address KPT) so nanti KPT ada power untuk add/delet participant\r\n        contractOwner = msg.sender;\r\n        \r\n    }\r\n    \r\n    \r\n    \r\n    //Untuk verify University\r\n    function verifyUniversity(address _sender) public view returns(bool)\r\n    {\r\n        if(universities[_sender].uniAddress == msg.sender )\r\n        {\r\n            return true;\r\n        }\r\n    }\r\n    \r\n    \r\n    //Untuk verify University yang add student tu\r\n    function verifyOwner(address _sender, string memory _matNo) public view returns(bool)\r\n    {\r\n        if(universities[_sender].uniAddress == msg.sender)\r\n        {\r\n            if(students[_matNo].uniAddress == msg.sender)\r\n            {\r\n                return true;\r\n            }\r\n        }\r\n        else\r\n        {\r\n            return false;\r\n        }\r\n        \r\n    }\r\n    \r\n    \r\n    \r\n    \r\n    //Untuk fetch data pasal Uni dan matric number\r\n    address[] public allUniAdd; // maybe boleh tukar ke addres dan uni name\r\n    string[] public allUniName;\r\n    function getAllUniversity() public view returns(address[] memory, string[] memory)\r\n    {\r\n        return (allUniAdd, allUniName);\r\n    }\r\n    \r\n    // function getAllUniversityAddress() public view returns(address[] memory)\r\n    // {\r\n    //     return allUniAdd;\r\n    // }\r\n    \r\n    //matric number untuk student dalam uni tu\r\n    //Get kat front end kena letak from address mana\r\n    function getAllStudentMatricNumberInTheUniversity() public view returns(string[] memory) \r\n    {\r\n        return universities[msg.sender].matricNo; \r\n    }\r\n    \r\n    \r\n    \r\n    \r\n    //Cari individual student\r\n    // kena specific dengan lower or uppercase\r\n    function getStudent(string memory _matricNumber) public view returns(address, string memory, string memory, string memory, string memory, string memory, string memory, string memory, string memory, string memory, uint, uint)\r\n    {\r\n        string memory number = _matricNumber;\r\n        return (students[number].uniAddress, students[number].uniName, students[number].name , students[number].matricNumber , students[number].nationality , students[number].faculty , students[number].course, students[number].identityCardNo, students[number].gender, students[number].status , students[number].deployTime, students[number].blockNumber);\r\n    }\r\n    \r\n    function getUniversity(address _uniAdd) public view returns(address, string memory, string memory)\r\n    {\r\n        address addr = _uniAdd;\r\n        if(universities[_uniAdd].uniAddress == _uniAdd)\r\n        {\r\n            return (universities[addr].uniAddress, universities[addr].uniName, universities[addr].status);\r\n        }\r\n        else\r\n        {\r\n            if(bytes(universities[_uniAdd].status).length > 5)\r\n            {\r\n                return (universities[addr].uniAddress, universities[addr].uniName, universities[addr].status);\r\n            }\r\n            else\r\n            {\r\n                revert(\"That University is not in the system\");\r\n            }\r\n        }\r\n        \r\n        \r\n    }\r\n    \r\n    \r\n\r\n\r\n    //Add university\r\n    function insertUniversity(address _uniAddress, string memory _uniName) public\r\n    {\r\n        if (msg.sender == contractOwner)\r\n        {\r\n            allUniAdd.push(_uniAddress);\r\n            allUniName.push(_uniName);\r\n            string[] memory empty;\r\n            string memory _status = 'Added';\r\n            \r\n            \r\n            universities[_uniAddress] = University(_uniAddress, _uniName, empty, _status, block.timestamp, block.number);\r\n            \r\n            emit universitiesInserted(_uniAddress, _uniName, empty, _status, block.timestamp, block.number);\r\n            \r\n        }\r\n        else\r\n        revert (\"You do not have the credential to do such action as you are not the contract owner\");\r\n        \r\n        \r\n    }\r\n    \r\n    function universityCounter(address _uniAddress) public view returns(uint)\r\n    {\r\n        uint counter; \r\n        for (uint i=0; i <= allUniAdd.length; i++)\r\n        {\r\n            if(allUniAdd[i] == _uniAddress)\r\n            {\r\n                counter = i;\r\n                return counter;\r\n            }\r\n        }\r\n    }\r\n    \r\n    //Delete University\r\n    function deleteUniversity(address _uniAddress) public\r\n    {\r\n\r\n        \r\n        if (msg.sender == contractOwner)\r\n        {\r\n            uint counter = universityCounter(_uniAddress);\r\n            \r\n            delete allUniAdd[counter];\r\n            delete allUniName[counter];\r\n            delete universities[_uniAddress];\r\n            universities[_uniAddress].status = 'Deleted';\r\n            universities[_uniAddress].blockNumber = block.number;\r\n            universities[_uniAddress].deployTime = block.timestamp;\r\n        }\r\n        else\r\n        revert (\"You do not have the credential to do such action as you are not the contract owner\");\r\n        // delete universities[_uniAddress];\r\n        \r\n        \r\n    }\r\n    \r\n\r\n    //Add student\r\n    function insertStudent(string memory _name, string memory _matricNumber, string memory _nationality, string memory _faculty, string memory _course, string memory _ic, string memory _gender) public\r\n    {\r\n        // address alamatUni = universities[msg.sender].uniAddress;\r\n        bool ada = verifyUniversity(msg.sender);\r\n\r\n \r\n        if(ada == true)\r\n        {\r\n\r\n            if (bytes(_name).length <= 0 || bytes(_matricNumber).length <= 0 || bytes(_nationality).length <= 0 || bytes(_faculty).length <= 0 \r\n            || bytes(_gender).length <= 0 || bytes(_course).length <= 0)\r\n            {\r\n                revert(\"Not enough details\");\r\n            }\r\n            \r\n            // Pakai keccak\r\n            if(keccak256(abi.encodePacked((students[_matricNumber].matricNumber))) == keccak256(abi.encodePacked((_matricNumber))) )\r\n            revert(\"Student already exist\");\r\n            \r\n            string memory namaUni = universities[msg.sender].uniName;\r\n            string memory _status = 'Added';\r\n            \r\n            \r\n            universities[msg.sender].matricNo.push(_matricNumber);\r\n            students[_matricNumber] = Student(msg.sender, namaUni, _name, _matricNumber, _nationality, _faculty, _course, _ic, _gender, _status, block.timestamp, block.number);\r\n            \r\n            emit studentInserted(msg.sender, namaUni,  _name, _matricNumber, _nationality, _faculty, _course, _ic, _gender, _status, block.timestamp, block.number);\r\n        }\r\n        else\r\n        revert(\"Your university address is not listed in the system\");\r\n    }\r\n    \r\n   \r\n    function matricNoCounter(string memory _matNo) public view returns(uint)\r\n    {\r\n        uint counter;\r\n        string[] memory matricNo = universities[msg.sender].matricNo;\r\n        for (uint i=0; i <= matricNo.length; i++)\r\n        {\r\n            if(keccak256(abi.encodePacked((matricNo[i]))) == keccak256(abi.encodePacked((_matNo))))  \r\n            {\r\n                counter = i;\r\n                return counter;\r\n            }\r\n        }\r\n    }\r\n    \r\n    //DIorang tak nak delete features\r\n    //Delete student\r\n    function deleteStudent(string memory _matricNumber) public\r\n    {\r\n        bool trueOwner = verifyOwner(msg.sender, _matricNumber);\r\n        // address alamatUni = universities[msg.sender].uniAddress;\r\n        bool ada = verifyUniversity(msg.sender);\r\n        \r\n        if(ada == true)\r\n        {\r\n            if(trueOwner == true)\r\n            {\r\n                uint counter = matricNoCounter(_matricNumber);\r\n                delete students[_matricNumber];\r\n            \r\n                delete universities[msg.sender].matricNo[counter];\r\n                students[_matricNumber].status = 'Deleted';\r\n                students[_matricNumber].deployTime = block.timestamp;\r\n                students[_matricNumber].blockNumber = block.number;\r\n                students[_matricNumber].matricNumber = _matricNumber;\r\n            }\r\n            else\r\n            revert(\"This student record is not from your university\");            \r\n        }\r\n        else\r\n        revert(\"Your university address is not listed in the system\");\r\n       \r\n    }\r\n    \r\n    \r\n    //Update student\r\n    function updateStudent(string memory _name, string memory _matricNumber, string memory _nationality, string memory _faculty, string memory _course, string memory _ic, string memory _gender) public\r\n    {\r\n        bool trueOwner = verifyOwner(msg.sender, _matricNumber);\r\n        // address alamatUni = universities[msg.sender].uniAddress;\r\n\r\n\r\n        if(trueOwner == true)\r\n            {\r\n                if (bytes(_name).length <= 0 || bytes(_matricNumber).length <= 0 || bytes(_nationality).length <= 0 || bytes(_faculty).length <= 0 \r\n                || bytes(_gender).length <= 0 || bytes(_course).length <= 0)\r\n                {\r\n                     revert(\"Not enough details\");\r\n                }\r\n                \r\n                string memory namaUni = universities[msg.sender].uniName;\r\n                string memory _status = 'Updated';\r\n\r\n                students[_matricNumber] = Student(msg.sender, namaUni, _name, _matricNumber, _nationality, _faculty, _course, _ic, _gender, _status, block.timestamp, block.number);\r\n                \r\n                emit studentUpdated(msg.sender, namaUni, _name, _matricNumber, _nationality, _faculty, _course, _ic, _gender, _status,block.timestamp, block.number);\r\n            }\r\n            else\r\n            revert(\"This student record is not from your university\");\r\n        \r\n    }\r\n    \r\n\r\n\r\n    \r\n    mapping(string => Scroll) public scroll;\r\n    struct Scroll\r\n    {\r\n        string matricNumber;\r\n        string scrollIPFS;\r\n        \r\n        string status;\r\n        uint deployTime;\r\n        uint blockNumber;\r\n    }\r\n    \r\n    event scrollInserted\r\n    (\r\n        string matricNumber,\r\n        string scrollIPFS,\r\n        \r\n        string status,\r\n        uint deployTime,\r\n        uint blockNumber\r\n    );\r\n    \r\n    event scrollUpdated\r\n    (\r\n        string matricNumber,\r\n        string scrollIPFS,\r\n        \r\n        string status,\r\n        uint deployTime,\r\n        uint blockNumber\r\n    );\r\n    \r\n    \r\n    function getStudentIPFSScroll(string memory _matricNumber) public view returns(string memory)\r\n    {\r\n        return (scroll[_matricNumber].scrollIPFS );\r\n    }\r\n    \r\n    function insertScroll(string memory _matricNumber, string memory _ipfsHash) public\r\n    {\r\n        bool trueOwner = verifyOwner(msg.sender, _matricNumber);\r\n\r\n        if(trueOwner == true)\r\n        {\r\n            if (bytes(_matricNumber).length <= 0 || bytes(_ipfsHash).length <= 0)\r\n            {\r\n                 revert(\"Not enough details\");\r\n            }\r\n            \r\n            string memory _status = 'Added';\r\n            \r\n            scroll[_matricNumber] = Scroll(_matricNumber, _ipfsHash, _status, block.timestamp, block.number);\r\n            emit scrollInserted(_matricNumber, _ipfsHash, _status, block.timestamp, block.number);\r\n            \r\n        }\r\n        else\r\n        revert(\"This student record is not from your university\");\r\n    }\r\n    \r\n    function updateScroll(string memory _matricNumber, string memory _ipfsHash) public\r\n    {\r\n        bool trueOwner = verifyOwner(msg.sender, _matricNumber);\r\n\r\n\r\n        if(trueOwner == true)\r\n        {\r\n            if (bytes(_matricNumber).length <= 0 || bytes(_ipfsHash).length <= 0)\r\n            {\r\n                 revert(\"Not enough details\");\r\n            }\r\n            \r\n            string memory _status = 'Updated';\r\n            \r\n            scroll[_matricNumber] = Scroll(_matricNumber, _ipfsHash, _status, block.timestamp, block.number);\r\n            emit scrollUpdated(_matricNumber, _ipfsHash, _status, block.timestamp, block.number);\r\n            \r\n        }\r\n        else\r\n        revert(\"This student record is not from your university\");\r\n    }\r\n    \r\n    \r\n    // //Cocu Transcript\r\n    // mapping(string => CocuTranscript) public cocuTranscript;\r\n    // struct CocuTranscript\r\n    // {\r\n    //     string matricNumber;\r\n    //     string[] nameOfProgramme;\r\n    //     uint[] date;\r\n    //     uint[] level;\r\n    //     string[] designation;\r\n    //     uint[] points;\r\n        \r\n    //     string status;\r\n    //     uint deployTime;\r\n    //     uint blockNumber;\r\n        \r\n    // }\r\n    \r\n    // function getStudentCocuTranscript(string memory _matricNumber) public view returns(string memory, string[] memory, uint[] memory, uint[] memory, string[] memory, uint[] memory, string memory, uint, uint)\r\n    // {\r\n    //     string memory matricNumber = _matricNumber;\r\n    //     return (cocuTranscript[_matricNumber].matricNumber , cocuTranscript[_matricNumber].nameOfProgramme, cocuTranscript[_matricNumber].date, cocuTranscript[_matricNumber].level, cocuTranscript[matricNumber].designation, cocuTranscript[matricNumber].points, cocuTranscript[matricNumber].status, cocuTranscript[matricNumber].deployTime, cocuTranscript[matricNumber].blockNumber );\r\n    // }\r\n    \r\n    // function insertCocuTranscript(string memory _matricNumber, string memory _nameOfProgramme, uint _date, uint _level, string memory _designation, uint _points) public\r\n    // {\r\n    //     bool trueOwner = verifyOwner(msg.sender, _matricNumber);\r\n\r\n    //     if(trueOwner == true)\r\n    //     {\r\n    //         if (bytes(_matricNumber).length <= 0 || bytes(_nameOfProgramme).length <= 0 || uint(_date) <= 0 \r\n    //         || uint(_level) <= 0 || bytes(_designation).length <= 0 || uint(_points) <= 0)\r\n    //         {\r\n    //              revert(\"Not enough details\");\r\n    //         }\r\n            \r\n    //         string memory _status = 'Added';\r\n            \r\n    //         cocuTranscript[_matricNumber].matricNumber = _matricNumber;\r\n            \r\n    //         cocuTranscript[_matricNumber].nameOfProgramme.push(_nameOfProgramme);\r\n    //         cocuTranscript[_matricNumber].date.push(_date);\r\n    //         cocuTranscript[_matricNumber].level.push(_level);\r\n    //         cocuTranscript[_matricNumber].designation.push(_designation);\r\n    //         cocuTranscript[_matricNumber].points.push(_points);\r\n            \r\n    //         cocuTranscript[_matricNumber].status = _status;\r\n    //         cocuTranscript[_matricNumber].deployTime = block.timestamp;\r\n    //         cocuTranscript[_matricNumber].blockNumber = block.number;\r\n  \r\n    //     }\r\n    //     else\r\n    //     revert(\"This student record is not from your university\");\r\n    // }\r\n    \r\n    // //Academic Transcript\r\n    // mapping(uint => AcademicTranscript) public acadTranscript;\r\n    // struct AcademicTranscript\r\n    // {\r\n    //     string matricNumber;\r\n    //     uint[] code;\r\n    //     string[] courseTitle;\r\n    //     uint[] creditHour;\r\n    //     string[] grade;\r\n        \r\n        \r\n    //     uint chrAttempted;\r\n    //     uint chrEarned;\r\n    //     uint chrFulfilled;\r\n    //     uint totalChrReq;\r\n    //     uint chrExempted;\r\n        \r\n    //     string status;\r\n    //     uint deployTime;\r\n    //     uint blockNumber;\r\n        \r\n    // }\r\n    \r\n\r\n    \r\n    \r\n}\r\n",
  "sourcePath": "C:/xampp/htdocs/e-scroll-lookup/contracts/Escroll.sol",
  "compiler": {
    "name": "solc",
    "version": "0.6.1+commit.e6f7d5a4.Emscripten.clang"
  },
  "schemaVersion": "3.2.4",
  "updatedAt": "2020-10-07T14:24:15.855Z",
  "devdoc": {
    "methods": {}
  },
  "userdoc": {
    "methods": {}
  }
}